{
    "contractName": "structpractice",
    "abi": [
        {
            "inputs": [
                {
                    "internalType": "uint256",
                    "name": "",
                    "type": "uint256"
                }
            ],
            "name": "People",
            "outputs": [
                {
                    "internalType": "string",
                    "name": "_firstName",
                    "type": "string"
                },
                {
                    "internalType": "string",
                    "name": "_lastName",
                    "type": "string"
                }
            ],
            "stateMutability": "view",
            "type": "function"
        },
        {
            "inputs": [
                {
                    "internalType": "string",
                    "name": "_firstName",
                    "type": "string"
                },
                {
                    "internalType": "string",
                    "name": "_lastName",
                    "type": "string"
                }
            ],
            "name": "addPeople",
            "outputs": [],
            "stateMutability": "nonpayable",
            "type": "function"
        },
        {
            "inputs": [],
            "name": "peopleCount",
            "outputs": [
                {
                    "internalType": "uint256",
                    "name": "",
                    "type": "uint256"
                }
            ],
            "stateMutability": "view",
            "type": "function"
        }
    ],
    "bytecode": "608060405234801561001057600080fd5b5061052c806100206000396000f3fe608060405234801561001057600080fd5b50600436106100415760003560e01c8063267c68e0146100465780632d26862714610060578063c7fb34681461018f575b600080fd5b61004e61028a565b60408051918252519081900360200190f35b61018d6004803603604081101561007657600080fd5b81019060208101813564010000000081111561009157600080fd5b8201836020820111156100a357600080fd5b803590602001918460018302840111640100000000831117156100c557600080fd5b91908080601f016020809104026020016040519081016040528093929190818152602001838380828437600092019190915250929594936020810193503591505064010000000081111561011857600080fd5b82018360208201111561012a57600080fd5b8035906020019184600183028401116401000000008311171561014c57600080fd5b91908080601f016020809104026020016040519081016040528093929190818152602001838380828437600092019190915250929550610290945050505050565b005b6101ac600480360360208110156101a557600080fd5b5035610318565b604051808060200180602001838103835285818151815260200191508051906020019080838360005b838110156101ed5781810151838201526020016101d5565b50505050905090810190601f16801561021a5780820380516001836020036101000a031916815260200191505b50838103825284518152845160209182019186019080838360005b8381101561024d578181015183820152602001610235565b50505050905090810190601f16801561027a5780820380516001836020036101000a031916815260200191505b5094505050505060405180910390f35b60005481565b6040805180820190915282815260208082018390526001805480820182556000919091528251805160029092027fb10e2d527612073b26eecdfd717e6a320cf44b4afac2b0732d9fcbe2b7fa0cf601926102ef92849290910190610463565b5060208281015180516103089260018501920190610463565b5050600080546001019055505050565b6001818154811061032557fe5b60009182526020918290206002918202018054604080516001831615610100026000190190921693909304601f8101859004850282018501909352828152909350918391908301828280156103bb5780601f10610390576101008083540402835291602001916103bb565b820191906000526020600020905b81548152906001019060200180831161039e57829003601f168201915b505050505090806001018054600181600116156101000203166002900480601f0160208091040260200160405190810160405280929190818152602001828054600181600116156101000203166002900480156104595780601f1061042e57610100808354040283529160200191610459565b820191906000526020600020905b81548152906001019060200180831161043c57829003601f168201915b5050505050905082565b828054600181600116156101000203166002900490600052602060002090601f016020900481019282601f106104a457805160ff19168380011785556104d1565b828001600101855582156104d1579182015b828111156104d15782518255916020019190600101906104b6565b506104dd9291506104e1565b5090565b5b808211156104dd57600081556001016104e256fea2646970667358221220bb2df1cda27b845dc6862db289994a3749aa037d1f39d984a334210ba04e97aa64736f6c63430007030033",
    "sourcePath": "c:/Users/crazy/Desktop/Blockchain'22/Web3_projects/my-wave-portal/contracts/chkstructs.sol",
    "compiler": {
        "name": "solc",
        "version": "0.7.3+commit.9bfce1f6"
    },
    "functionHashes": {
        "People(uint256)": "c7fb3468",
        "addPeople(string,string)": "2d268627",
        "peopleCount()": "267c68e0"
    },
    "gasEstimates": {
        "creation": {
            "codeDepositCost": "264800",
            "executionCost": "306",
            "totalCost": "265106"
        },
        "external": {
            "People(uint256)": "infinite",
            "addPeople(string,string)": "infinite",
            "peopleCount()": "976"
        }
    }
}